{
  "_format": "hh-sol-artifact-1",
  "contractName": "CertificateRegistry",
  "sourceName": "contracts/CertificateRegistry.sol",
  "abi": [
    {
      "inputs": [],
      "stateMutability": "nonpayable",
      "type": "constructor"
    },
    {
      "anonymous": false,
      "inputs": [
        {
          "indexed": true,
          "internalType": "bytes32",
          "name": "hash",
          "type": "bytes32"
        },
        {
          "indexed": false,
          "internalType": "string",
          "name": "studentId",
          "type": "string"
        },
        {
          "indexed": true,
          "internalType": "address",
          "name": "issuer",
          "type": "address"
        }
      ],
      "name": "CertificateIssued",
      "type": "event"
    },
    {
      "anonymous": false,
      "inputs": [
        {
          "indexed": true,
          "internalType": "bytes32",
          "name": "hash",
          "type": "bytes32"
        },
        {
          "indexed": true,
          "internalType": "address",
          "name": "issuer",
          "type": "address"
        }
      ],
      "name": "CertificateRevoked",
      "type": "event"
    },
    {
      "inputs": [
        {
          "internalType": "address",
          "name": "_issuer",
          "type": "address"
        }
      ],
      "name": "addIssuer",
      "outputs": [],
      "stateMutability": "nonpayable",
      "type": "function"
    },
    {
      "inputs": [
        {
          "internalType": "address",
          "name": "",
          "type": "address"
        }
      ],
      "name": "authorizedIssuers",
      "outputs": [
        {
          "internalType": "bool",
          "name": "",
          "type": "bool"
        }
      ],
      "stateMutability": "view",
      "type": "function"
    },
    {
      "inputs": [
        {
          "internalType": "bytes32",
          "name": "",
          "type": "bytes32"
        }
      ],
      "name": "certificates",
      "outputs": [
        {
          "internalType": "string",
          "name": "studentId",
          "type": "string"
        },
        {
          "internalType": "string",
          "name": "data",
          "type": "string"
        },
        {
          "internalType": "address",
          "name": "issuer",
          "type": "address"
        },
        {
          "internalType": "uint256",
          "name": "timestamp",
          "type": "uint256"
        },
        {
          "internalType": "bool",
          "name": "isValid",
          "type": "bool"
        }
      ],
      "stateMutability": "view",
      "type": "function"
    },
    {
      "inputs": [
        {
          "internalType": "bytes32",
          "name": "_hash",
          "type": "bytes32"
        },
        {
          "internalType": "string",
          "name": "_studentId",
          "type": "string"
        },
        {
          "internalType": "string",
          "name": "_data",
          "type": "string"
        }
      ],
      "name": "issueCertificate",
      "outputs": [],
      "stateMutability": "nonpayable",
      "type": "function"
    },
    {
      "inputs": [],
      "name": "owner",
      "outputs": [
        {
          "internalType": "address",
          "name": "",
          "type": "address"
        }
      ],
      "stateMutability": "view",
      "type": "function"
    },
    {
      "inputs": [
        {
          "internalType": "address",
          "name": "_issuer",
          "type": "address"
        }
      ],
      "name": "removeIssuer",
      "outputs": [],
      "stateMutability": "nonpayable",
      "type": "function"
    },
    {
      "inputs": [
        {
          "internalType": "bytes32",
          "name": "_hash",
          "type": "bytes32"
        }
      ],
      "name": "revokeCertificate",
      "outputs": [],
      "stateMutability": "nonpayable",
      "type": "function"
    },
    {
      "inputs": [
        {
          "internalType": "bytes32",
          "name": "_hash",
          "type": "bytes32"
        }
      ],
      "name": "verifyCertificate",
      "outputs": [
        {
          "internalType": "bool",
          "name": "",
          "type": "bool"
        },
        {
          "internalType": "string",
          "name": "",
          "type": "string"
        },
        {
          "internalType": "string",
          "name": "",
          "type": "string"
        },
        {
          "internalType": "uint256",
          "name": "",
          "type": "uint256"
        },
        {
          "internalType": "address",
          "name": "",
          "type": "address"
        }
      ],
      "stateMutability": "view",
      "type": "function"
    }
  ],
  "bytecode": "0x6080604052348015600f57600080fd5b5033600260006101000a81548173ffffffffffffffffffffffffffffffffffffffff021916908373ffffffffffffffffffffffffffffffffffffffff16021790555060018060003373ffffffffffffffffffffffffffffffffffffffff1673ffffffffffffffffffffffffffffffffffffffff16815260200190815260200160002060006101000a81548160ff021916908315150217905550611593806100b76000396000f3fe608060405234801561001057600080fd5b50600436106100885760003560e01c80638da5cb5b1161005b5780638da5cb5b1461012d578063abde212b1461014b578063c6cbc52a14610167578063f731fa0f1461018357610088565b806320694db01461008d57806347bc7093146100a9578063742f0688146100c5578063850c1768146100f9575b600080fd5b6100a760048036038101906100a29190610c26565b6101b3565b005b6100c360048036038101906100be9190610c26565b61029d565b005b6100df60048036038101906100da9190610c89565b610388565b6040516100f0959493929190610d89565b60405180910390f35b610113600480360381019061010e9190610c89565b6104fb565b604051610124959493929190610dea565b60405180910390f35b6101356106f0565b6040516101429190610e4b565b60405180910390f35b61016560048036038101906101609190610f9b565b610716565b005b610181600480360381019061017c9190610c89565b610940565b005b61019d60048036038101906101989190610c26565b610b94565b6040516101aa9190611026565b60405180910390f35b600260009054906101000a900473ffffffffffffffffffffffffffffffffffffffff1673ffffffffffffffffffffffffffffffffffffffff163373ffffffffffffffffffffffffffffffffffffffff1614610243576040517f08c379a000000000000000000000000000000000000000000000000000000000815260040161023a9061108d565b60405180910390fd5b60018060008373ffffffffffffffffffffffffffffffffffffffff1673ffffffffffffffffffffffffffffffffffffffff16815260200190815260200160002060006101000a81548160ff02191690831515021790555050565b600260009054906101000a900473ffffffffffffffffffffffffffffffffffffffff1673ffffffffffffffffffffffffffffffffffffffff163373ffffffffffffffffffffffffffffffffffffffff161461032d576040517f08c379a00000000000000000000000000000000000000000000000000000000081526004016103249061108d565b60405180910390fd5b6000600160008373ffffffffffffffffffffffffffffffffffffffff1673ffffffffffffffffffffffffffffffffffffffff16815260200190815260200160002060006101000a81548160ff02191690831515021790555050565b60006020528060005260406000206000915090508060000180546103ab906110dc565b80601f01602080910402602001604051908101604052809291908181526020018280546103d7906110dc565b80156104245780601f106103f957610100808354040283529160200191610424565b820191906000526020600020905b81548152906001019060200180831161040757829003601f168201915b505050505090806001018054610439906110dc565b80601f0160208091040260200160405190810160405280929190818152602001828054610465906110dc565b80156104b25780601f10610487576101008083540402835291602001916104b2565b820191906000526020600020905b81548152906001019060200180831161049557829003601f168201915b5050505050908060020160009054906101000a900473ffffffffffffffffffffffffffffffffffffffff16908060030154908060040160009054906101000a900460ff16905085565b600060608060008060008060008881526020019081526020016000206040518060a0016040529081600082018054610532906110dc565b80601f016020809104026020016040519081016040528092919081815260200182805461055e906110dc565b80156105ab5780601f10610580576101008083540402835291602001916105ab565b820191906000526020600020905b81548152906001019060200180831161058e57829003601f168201915b505050505081526020016001820180546105c4906110dc565b80601f01602080910402602001604051908101604052809291908181526020018280546105f0906110dc565b801561063d5780601f106106125761010080835404028352916020019161063d565b820191906000526020600020905b81548152906001019060200180831161062057829003601f168201915b505050505081526020016002820160009054906101000a900473ffffffffffffffffffffffffffffffffffffffff1673ffffffffffffffffffffffffffffffffffffffff1673ffffffffffffffffffffffffffffffffffffffff168152602001600382015481526020016004820160009054906101000a900460ff161515151581525050905080608001518160000151826020015183606001518460400151955095509550955095505091939590929450565b600260009054906101000a900473ffffffffffffffffffffffffffffffffffffffff1681565b600160003373ffffffffffffffffffffffffffffffffffffffff1673ffffffffffffffffffffffffffffffffffffffff16815260200190815260200160002060009054906101000a900460ff166107a2576040517f08c379a000000000000000000000000000000000000000000000000000000000815260040161079990611159565b60405180910390fd5b600080600085815260200190815260200160002060030154146107fa576040517f08c379a00000000000000000000000000000000000000000000000000000000081526004016107f1906111c5565b60405180910390fd5b6040518060a001604052808381526020018281526020013373ffffffffffffffffffffffffffffffffffffffff1681526020014281526020016001151581525060008085815260200190815260200160002060008201518160000190816108619190611391565b5060208201518160010190816108779190611391565b5060408201518160020160006101000a81548173ffffffffffffffffffffffffffffffffffffffff021916908373ffffffffffffffffffffffffffffffffffffffff1602179055506060820151816003015560808201518160040160006101000a81548160ff0219169083151502179055509050503373ffffffffffffffffffffffffffffffffffffffff16837fbd708949a94bcb22c03687820c8299d7e4f40b442e7652b026fc0f5599709211846040516109339190611463565b60405180910390a3505050565b600160003373ffffffffffffffffffffffffffffffffffffffff1673ffffffffffffffffffffffffffffffffffffffff16815260200190815260200160002060009054906101000a900460ff166109cc576040517f08c379a00000000000000000000000000000000000000000000000000000000081526004016109c390611159565b60405180910390fd5b60008060008381526020019081526020016000206003015403610a24576040517f08c379a0000000000000000000000000000000000000000000000000000000008152600401610a1b906114d1565b60405180910390fd5b3373ffffffffffffffffffffffffffffffffffffffff1660008083815260200190815260200160002060020160009054906101000a900473ffffffffffffffffffffffffffffffffffffffff1673ffffffffffffffffffffffffffffffffffffffff161480610ae05750600260009054906101000a900473ffffffffffffffffffffffffffffffffffffffff1673ffffffffffffffffffffffffffffffffffffffff163373ffffffffffffffffffffffffffffffffffffffff16145b610b1f576040517f08c379a0000000000000000000000000000000000000000000000000000000008152600401610b169061153d565b60405180910390fd5b600080600083815260200190815260200160002060040160006101000a81548160ff0219169083151502179055503373ffffffffffffffffffffffffffffffffffffffff16817f1dbd7f0554a6447214abb6405781d5ee119037a7024fcb7fffd542c3c12cd77660405160405180910390a350565b60016020528060005260406000206000915054906101000a900460ff1681565b6000604051905090565b600080fd5b600080fd5b600073ffffffffffffffffffffffffffffffffffffffff82169050919050565b6000610bf382610bc8565b9050919050565b610c0381610be8565b8114610c0e57600080fd5b50565b600081359050610c2081610bfa565b92915050565b600060208284031215610c3c57610c3b610bbe565b5b6000610c4a84828501610c11565b91505092915050565b6000819050919050565b610c6681610c53565b8114610c7157600080fd5b50565b600081359050610c8381610c5d565b92915050565b600060208284031215610c9f57610c9e610bbe565b5b6000610cad84828501610c74565b91505092915050565b600081519050919050565b600082825260208201905092915050565b60005b83811015610cf0578082015181840152602081019050610cd5565b60008484015250505050565b6000601f19601f8301169050919050565b6000610d1882610cb6565b610d228185610cc1565b9350610d32818560208601610cd2565b610d3b81610cfc565b840191505092915050565b610d4f81610be8565b82525050565b6000819050919050565b610d6881610d55565b82525050565b60008115159050919050565b610d8381610d6e565b82525050565b600060a0820190508181036000830152610da38188610d0d565b90508181036020830152610db78187610d0d565b9050610dc66040830186610d46565b610dd36060830185610d5f565b610de06080830184610d7a565b9695505050505050565b600060a082019050610dff6000830188610d7a565b8181036020830152610e118187610d0d565b90508181036040830152610e258186610d0d565b9050610e346060830185610d5f565b610e416080830184610d46565b9695505050505050565b6000602082019050610e606000830184610d46565b92915050565b600080fd5b600080fd5b7f4e487b7100000000000000000000000000000000000000000000000000000000600052604160045260246000fd5b610ea882610cfc565b810181811067ffffffffffffffff82111715610ec757610ec6610e70565b5b80604052505050565b6000610eda610bb4565b9050610ee68282610e9f565b919050565b600067ffffffffffffffff821115610f0657610f05610e70565b5b610f0f82610cfc565b9050602081019050919050565b82818337600083830152505050565b6000610f3e610f3984610eeb565b610ed0565b905082815260208101848484011115610f5a57610f59610e6b565b5b610f65848285610f1c565b509392505050565b600082601f830112610f8257610f81610e66565b5b8135610f92848260208601610f2b565b91505092915050565b600080600060608486031215610fb457610fb3610bbe565b5b6000610fc286828701610c74565b935050602084013567ffffffffffffffff811115610fe357610fe2610bc3565b5b610fef86828701610f6d565b925050604084013567ffffffffffffffff8111156110105761100f610bc3565b5b61101c86828701610f6d565b9150509250925092565b600060208201905061103b6000830184610d7a565b92915050565b7f4e6f74206f776e65720000000000000000000000000000000000000000000000600082015250565b6000611077600983610cc1565b915061108282611041565b602082019050919050565b600060208201905081810360008301526110a68161106a565b9050919050565b7f4e487b7100000000000000000000000000000000000000000000000000000000600052602260045260246000fd5b600060028204905060018216806110f457607f821691505b602082108103611107576111066110ad565b5b50919050565b7f4e6f7420617574686f72697a6564206973737565720000000000000000000000600082015250565b6000611143601583610cc1565b915061114e8261110d565b602082019050919050565b6000602082019050818103600083015261117281611136565b9050919050565b7f436572746966696361746520616c726561647920657869737473000000000000600082015250565b60006111af601a83610cc1565b91506111ba82611179565b602082019050919050565b600060208201905081810360008301526111de816111a2565b9050919050565b60008190508160005260206000209050919050565b60006020601f8301049050919050565b600082821b905092915050565b6000600883026112477fffffffffffffffffffffffffffffffffffffffffffffffffffffffffffffffff8261120a565b611251868361120a565b95508019841693508086168417925050509392505050565b6000819050919050565b600061128e61128961128484610d55565b611269565b610d55565b9050919050565b6000819050919050565b6112a883611273565b6112bc6112b482611295565b848454611217565b825550505050565b600090565b6112d16112c4565b6112dc81848461129f565b505050565b5b81811015611300576112f56000826112c9565b6001810190506112e2565b5050565b601f82111561134557611316816111e5565b61131f846111fa565b8101602085101561132e578190505b61134261133a856111fa565b8301826112e1565b50505b505050565b600082821c905092915050565b60006113686000198460080261134a565b1980831691505092915050565b60006113818383611357565b9150826002028217905092915050565b61139a82610cb6565b67ffffffffffffffff8111156113b3576113b2610e70565b5b6113bd82546110dc565b6113c8828285611304565b600060209050601f8311600181146113fb57600084156113e9578287015190505b6113f38582611375565b86555061145b565b601f198416611409866111e5565b60005b828110156114315784890151825560018201915060208501945060208101905061140c565b8683101561144e578489015161144a601f891682611357565b8355505b6001600288020188555050505b505050505050565b6000602082019050818103600083015261147d8184610d0d565b905092915050565b7f436572746966696361746520646f6573206e6f74206578697374000000000000600082015250565b60006114bb601a83610cc1565b91506114c682611485565b602082019050919050565b600060208201905081810360008301526114ea816114ae565b9050919050565b7f4e6f7420617574686f72697a656420746f207265766f6b650000000000000000600082015250565b6000611527601883610cc1565b9150611532826114f1565b602082019050919050565b600060208201905081810360008301526115568161151a565b905091905056fea2646970667358221220c5530b2e73fea4b867dde87174a47e7083911f8e3788c6a8e32b7449fb145b5264736f6c634300081c0033",
  "linkReferences": {},
  "deployedLinkReferences": {}
}